{
    "contractName": "Courses",
    "abi": [
        {
            "constant": true,
            "inputs": [
                {
                    "name": "_address",
                    "type": "address"
                }
            ],
            "name": "getInstructor",
            "outputs": [
                {
                    "name": "",
                    "type": "uint256"
                },
                {
                    "name": "",
                    "type": "string"
                },
                {
                    "name": "",
                    "type": "string"
                }
            ],
            "payable": false,
            "stateMutability": "view",
            "type": "function"
        },
        {
            "constant": false,
            "inputs": [
                {
                    "name": "_address",
                    "type": "address"
                },
                {
                    "name": "_age",
                    "type": "uint256"
                },
                {
                    "name": "_fName",
                    "type": "string"
                },
                {
                    "name": "_lName",
                    "type": "string"
                }
            ],
            "name": "setInstructor",
            "outputs": [],
            "payable": false,
            "stateMutability": "nonpayable",
            "type": "function"
        },
        {
            "constant": true,
            "inputs": [],
            "name": "getInstructors",
            "outputs": [
                {
                    "name": "",
                    "type": "address[]"
                }
            ],
            "payable": false,
            "stateMutability": "view",
            "type": "function"
        },
        {
            "constant": true,
            "inputs": [
                {
                    "name": "",
                    "type": "uint256"
                }
            ],
            "name": "instructorAccts",
            "outputs": [
                {
                    "name": "",
                    "type": "address"
                }
            ],
            "payable": false,
            "stateMutability": "view",
            "type": "function"
        },
        {
            "constant": true,
            "inputs": [],
            "name": "countInstructors",
            "outputs": [
                {
                    "name": "",
                    "type": "uint256"
                }
            ],
            "payable": false,
            "stateMutability": "view",
            "type": "function"
        }
    ],
    "bytecode": "608060405234801561001057600080fd5b506106d7806100206000396000f30060806040526004361061006c5763ffffffff7c01000000000000000000000000000000000000000000000000000000006000350416630429e372811461007157806346428adc146101775780635eff7dae146102205780638eb5234c14610285578063ca8ab933146102b9575b600080fd5b34801561007d57600080fd5b50610092600160a060020a03600435166102e0565b604051808481526020018060200180602001838103835285818151815260200191508051906020019080838360005b838110156100d95781810151838201526020016100c1565b50505050905090810190601f1680156101065780820380516001836020036101000a031916815260200191505b50838103825284518152845160209182019186019080838360005b83811015610139578181015183820152602001610121565b50505050905090810190601f1680156101665780820380516001836020036101000a031916815260200191505b509550505050505060405180910390f35b34801561018357600080fd5b50604080516020600460443581810135601f810184900484028501840190955284845261021e948235600160a060020a031694602480359536959460649492019190819084018382808284375050604080516020601f89358b018035918201839004830284018301909452808352979a9998810197919650918201945092508291508401838280828437509497506104319650505050505050565b005b34801561022c57600080fd5b506102356105f9565b60408051602080825283518183015283519192839290830191858101910280838360005b83811015610271578181015183820152602001610259565b505050509050019250505060405180910390f35b34801561029157600080fd5b5061029d60043561065b565b60408051600160a060020a039092168252519081900360200190f35b3480156102c557600080fd5b506102ce610683565b60408051918252519081900360200190f35b600160a060020a03811660009081526020818152604080832080546001808301805485516002938216156101000260001901909116839004601f81018890048802820188019096528581526060968796949592949390920192909184919083018282801561038f5780601f106103645761010080835404028352916020019161038f565b820191906000526020600020905b81548152906001019060200180831161037257829003601f168201915b5050845460408051602060026001851615610100026000190190941693909304601f81018490048402820184019092528181529597508694509250840190508282801561041d5780601f106103f25761010080835404028352916020019161041d565b820191906000526020600020905b81548152906001019060200180831161040057829003601f168201915b505050505090509250925092509193909250565b610439610689565b600160a060020a03851660009081526020818152604091829020825160608101845281548152600180830180548651600293821615610100026000190190911692909204601f81018690048602830186019096528582529194929385810193919291908301828280156104ed5780601f106104c2576101008083540402835291602001916104ed565b820191906000526020600020905b8154815290600101906020018083116104d057829003601f168201915b5050509183525050600282810180546040805160206001841615610100026000190190931694909404601f8101839004830285018301909152808452938101939083018282801561057f5780601f106105545761010080835404028352916020019161057f565b820191906000526020600020905b81548152906001019060200180831161056257829003601f168201915b505050919092525050509384525060208301919091526040909101526001805480820182556000919091527fb10e2d527612073b26eecdfd717e6a320cf44b4afac2b0732d9fcbe2b7fa0cf601805473ffffffffffffffffffffffffffffffffffffffff1916600160a060020a0392909216919091179055565b6060600180548060200260200160405190810160405280929190818152602001828054801561065157602002820191906000526020600020905b8154600160a060020a03168152600190910190602001808311610633575b5050505050905090565b600180548290811061066957fe5b600091825260209091200154600160a060020a0316905081565b60015490565b60606040519081016040528060008152602001606081526020016060815250905600a165627a7a723058201767e6506ba263ec31c502e0435487d27d3dd0bfaf73f032bfc6b084868c7b000029",
    "sourcePath": "/Users/umarfaruk/Documents/blockProj/Courses.sol",
    "compiler": {
        "name": "solc",
        "version": "0.4.22+commit.4cb486ee"
    },
    "functionHashes": {
        "countInstructors()": "ca8ab933",
        "getInstructor(address)": "0429e372",
        "getInstructors()": "5eff7dae",
        "instructorAccts(uint256)": "8eb5234c",
        "setInstructor(address,uint256,string,string)": "46428adc"
    },
    "gasEstimates": {
        "creation": {
            "codeDepositCost": "350200",
            "executionCost": "386",
            "totalCost": "350586"
        },
        "external": {
            "countInstructors()": "472",
            "getInstructor(address)": "infinite",
            "getInstructors()": "infinite",
            "instructorAccts(uint256)": "903",
            "setInstructor(address,uint256,string,string)": "infinite"
        }
    }
}