{
    "contractName": "ElectionCampaign",
    "abi": [
        {
            "constant": false,
            "inputs": [
                {
                    "name": "_recordId",
                    "type": "uint256"
                },
                {
                    "name": "_trExpId",
                    "type": "uint256"
                },
                {
                    "name": "_starCampaignerName",
                    "type": "string"
                }
            ],
            "name": "addStarCampaignerInRecord",
            "outputs": [
                {
                    "name": "",
                    "type": "uint256"
                }
            ],
            "payable": false,
            "stateMutability": "nonpayable",
            "type": "function"
        },
        {
            "constant": false,
            "inputs": [
                {
                    "name": "_recordId",
                    "type": "uint256"
                },
                {
                    "name": "_c",
                    "type": "uint256"
                },
                {
                    "name": "_chqAmt",
                    "type": "uint256"
                },
                {
                    "name": "_draft",
                    "type": "uint256"
                }
            ],
            "name": "addGrossExpenditure",
            "outputs": [],
            "payable": false,
            "stateMutability": "nonpayable",
            "type": "function"
        },
        {
            "constant": false,
            "inputs": [
                {
                    "name": "_id",
                    "type": "uint256"
                },
                {
                    "name": "_pName",
                    "type": "string"
                },
                {
                    "name": "_c",
                    "type": "uint256"
                },
                {
                    "name": "_oD",
                    "type": "uint256"
                },
                {
                    "name": "_bName",
                    "type": "string"
                },
                {
                    "name": "_bAmt",
                    "type": "uint256"
                }
            ],
            "name": "addElectionRecord",
            "outputs": [],
            "payable": false,
            "stateMutability": "nonpayable",
            "type": "function"
        },
        {
            "constant": false,
            "inputs": [
                {
                    "name": "_recordId",
                    "type": "uint256"
                },
                {
                    "name": "_c",
                    "type": "uint256"
                },
                {
                    "name": "_chqAmt",
                    "type": "uint256"
                }
            ],
            "name": "addGrossReceipt",
            "outputs": [],
            "payable": false,
            "stateMutability": "nonpayable",
            "type": "function"
        },
        {
            "constant": false,
            "inputs": [
                {
                    "name": "_recordId",
                    "type": "uint256"
                },
                {
                    "name": "_trExpId",
                    "type": "uint256"
                },
                {
                    "name": "_stVen",
                    "type": "string"
                },
                {
                    "name": "_dOfMeet",
                    "type": "string"
                },
                {
                    "name": "_starCampaigner1",
                    "type": "string"
                },
                {
                    "name": "_mOfTr",
                    "type": "string"
                },
                {
                    "name": "_nOfPayee",
                    "type": "string"
                }
            ],
            "name": "addTravelExpensesStarCampaigners",
            "outputs": [],
            "payable": false,
            "stateMutability": "nonpayable",
            "type": "function"
        },
        {
            "constant": true,
            "inputs": [
                {
                    "name": "_id",
                    "type": "uint256"
                }
            ],
            "name": "getElectionRecord",
            "outputs": [
                {
                    "components": [
                        {
                            "name": "Id",
                            "type": "uint256"
                        },
                        {
                            "name": "partyName",
                            "type": "string"
                        },
                        {
                            "components": [
                                {
                                    "name": "cash",
                                    "type": "uint256"
                                },
                                {
                                    "name": "otherDeposits",
                                    "type": "uint256"
                                },
                                {
                                    "components": [
                                        {
                                            "name": "bankName",
                                            "type": "string"
                                        },
                                        {
                                            "name": "bankAmount",
                                            "type": "uint256"
                                        }
                                    ],
                                    "name": "bankBalances",
                                    "type": "tuple[]"
                                }
                            ],
                            "name": "opBal",
                            "type": "tuple"
                        },
                        {
                            "components": [
                                {
                                    "name": "cash",
                                    "type": "uint256"
                                },
                                {
                                    "name": "chequeAmount",
                                    "type": "uint256"
                                }
                            ],
                            "name": "grRec",
                            "type": "tuple"
                        },
                        {
                            "components": [
                                {
                                    "name": "cash",
                                    "type": "uint256"
                                },
                                {
                                    "name": "chequeAmount",
                                    "type": "uint256"
                                },
                                {
                                    "name": "draft",
                                    "type": "uint256"
                                }
                            ],
                            "name": "grExp",
                            "type": "tuple"
                        },
                        {
                            "components": [
                                {
                                    "name": "trExpId",
                                    "type": "uint256"
                                },
                                {
                                    "name": "stateAndVenue",
                                    "type": "string"
                                },
                                {
                                    "name": "dateOfMeeting",
                                    "type": "string"
                                },
                                {
                                    "name": "starCampaigners",
                                    "type": "string[]"
                                },
                                {
                                    "name": "modeOfTravel",
                                    "type": "string"
                                },
                                {
                                    "name": "nameOfAircraftPayee",
                                    "type": "string"
                                },
                                {
                                    "name": "totalExpenses",
                                    "type": "uint256"
                                }
                            ],
                            "name": "trExpStCam",
                            "type": "tuple[]"
                        },
                        {
                            "name": "verifiedByECAgent",
                            "type": "bool"
                        }
                    ],
                    "name": "str",
                    "type": "tuple"
                }
            ],
            "payable": false,
            "stateMutability": "view",
            "type": "function"
        },
        {
            "constant": false,
            "inputs": [
                {
                    "name": "_recordId",
                    "type": "uint256"
                },
                {
                    "name": "_bName",
                    "type": "string"
                },
                {
                    "name": "_bAmt",
                    "type": "uint256"
                }
            ],
            "name": "updateOpeningBankBalance",
            "outputs": [],
            "payable": false,
            "stateMutability": "nonpayable",
            "type": "function"
        }
    ],
    "bytecode": "608060405234801561001057600080fd5b5061163c806100206000396000f3006080604052600436106100825763ffffffff7c01000000000000000000000000000000000000000000000000000000006000350416630e71b8b88114610087578063221edf87146100bd578063250d56ca146100df57806377f9cc8c146100ff5780639dce970f1461011f578063b632c22a1461013f578063decd5c3b1461016c575b600080fd5b34801561009357600080fd5b506100a76100a2366004610fb0565b61018c565b6040516100b4919061154e565b60405180910390f35b3480156100c957600080fd5b506100dd6100d8366004611151565b6101f9565b005b3480156100eb57600080fd5b506100dd6100fa366004610ef9565b61021b565b34801561010b57600080fd5b506100dd61011a36600461111f565b6102e1565b34801561012b57600080fd5b506100dd61013a36600461100b565b6102fe565b34801561014b57600080fd5b5061015f61015a366004610e6e565b61053b565b6040516100b4919061153d565b34801561017857600080fd5b506100dd610187366004610e94565b610b18565b6000838152602081905260408120600a01805482919060001986019081106101b057fe5b60009182526020808320600360079093020191820180546001810180835591855293829020875193955090936101eb93910191870190610b89565b505060030154949350505050565b6000938452602084905260409093206007810192909255600882015560090155565b610223610c07565b600087815260208181526040909120888155875161024992600190920191890190610b89565b505060008681526020818152604080832060028082018990556003820188905582518084019093528683528284018690528484526004909101805460018101808355918652948490208351805194969295879593909402909101926102b392849290910190610b89565b50602091820151600190910155600098895288905250506040909520600b01805460ff191690555050505050565b600092835260208390526040909220600581019190915560060155565b610306610c1f565b600180548082018083556000929092528551610349917fb10e2d527612073b26eecdfd717e6a320cf44b4afac2b0732d9fcbe2b7fa0cf601906020880190610b89565b505060e0604051908101604052808881526020018781526020018681526020016001805480602002602001604051908101604052809291908181526020016000905b828210156104365760008481526020908190208301805460408051601f60026000196101006001871615020190941693909304928301859004850281018501909152818152928301828280156104225780601f106103f757610100808354040283529160200191610422565b820191906000526020600020905b81548152906001019060200180831161040557829003601f168201915b50505050508152602001906001019061038b565b50505050815260200184815260200183815260200160008152509050600160006104609190610c5d565b6000888152602081815260408220600a01805460018181018084559285529383902085516007909202019081558483015180519294869492936104aa939185019290910190610b89565b50604082015180516104c6916002840191602090910190610b89565b50606082015180516104e2916003840191602090910190610c7e565b50608082015180516104fe916004840191602090910190610b89565b5060a0820151805161051a916005840191602090910190610b89565b5060c091909101516006909101555060008881526020525050505050505050565b610543610cd7565b60008281526020818152604091829020825160e08101845281548152600180830180548651600293821615610100026000190190911692909204601f81018690048602830186019096528582529194929385810193919291908301828280156105ed5780601f106105c2576101008083540402835291602001916105ed565b820191906000526020600020905b8154815290600101906020018083116105d057829003601f168201915b505050505081526020016002820160606040519081016040529081600082015481526020016001820154815260200160028201805480602002602001604051908101604052809291908181526020016000905b828210156107065760008481526020908190206040805160028681029093018054600181161561010002600019011693909304601f8101859004909402810160609081018352918101848152909384928491908401828280156106e45780601f106106b9576101008083540402835291602001916106e4565b820191906000526020600020905b8154815290600101906020018083116106c757829003601f168201915b5050505050815260200160018201548152505081526020019060010190610640565b505050915250508152604080518082018252600584015481526006840154602082810191909152808401919091528151606081810184526007860154825260088601548284015260098601548285015283850191909152600a8501805484518185028101850190955280855291909401939160009084015b82821015610af9578382906000526020600020906007020160e0604051908101604052908160008201548152602001600182018054600181600116156101000203166002900480601f0160208091040260200160405190810160405280929190818152602001828054600181600116156101000203166002900480156108455780601f1061081a57610100808354040283529160200191610845565b820191906000526020600020905b81548152906001019060200180831161082857829003601f168201915b5050509183525050600282810180546040805160206001841615610100026000190190931694909404601f810183900483028501830190915280845293810193908301828280156108d75780601f106108ac576101008083540402835291602001916108d7565b820191906000526020600020905b8154815290600101906020018083116108ba57829003601f168201915b5050505050815260200160038201805480602002602001604051908101604052809291908181526020016000905b828210156109b05760008481526020908190208301805460408051601f600260001961010060018716150201909416939093049283018590048502810185019091528181529283018282801561099c5780601f106109715761010080835404028352916020019161099c565b820191906000526020600020905b81548152906001019060200180831161097f57829003601f168201915b505050505081526020019060010190610905565b5050509082525060048201805460408051602060026001851615610100026000190190941693909304601f8101849004840282018401909252818152938201939291830182828015610a435780601f10610a1857610100808354040283529160200191610a43565b820191906000526020600020905b815481529060010190602001808311610a2657829003601f168201915b505050918352505060058201805460408051602060026001851615610100026000190190941693909304601f8101849004840282018401909252818152938201939291830182828015610ad75780601f10610aac57610100808354040283529160200191610ad7565b820191906000526020600020905b815481529060010190602001808311610aba57829003601f168201915b505050505081526020016006820154815250508152602001906001019061077e565b50505090825250600b919091015460ff16151560209091015292915050565b610b20610c07565b50604080518082018252838152602080820184905260008681528082529283206004018054600181018083559185529382902083518051949592948694600290940290920192610b7592849290910190610b89565b506020820151816001015550505050505050565b828054600181600116156101000203166002900490600052602060002090601f016020900481019282601f10610bca57805160ff1916838001178555610bf7565b82800160010185558215610bf7579182015b82811115610bf7578251825591602001919060010190610bdc565b50610c03929150610d28565b5090565b60408051808201909152606081526000602082015290565b60e060405190810160405280600081526020016060815260200160608152602001606081526020016060815260200160608152602001600081525090565b5080546000825590600052602060002090810190610c7b9190610d45565b50565b828054828255906000526020600020908101928215610ccb579160200282015b82811115610ccb5782518051610cbb918491602090910190610b89565b5091602001919060010190610c9e565b50610c03929150610d45565b610180604051908101604052806000815260200160608152602001610cfa610d68565b8152602001610d07610d8a565b8152602001610d14610da1565b815260606020820152600060409091015290565b610d4291905b80821115610c035760008155600101610d2e565b90565b610d4291905b80821115610c03576000610d5f8282610dc3565b50600101610d4b565b6060604051908101604052806000815260200160008152602001606081525090565b604080518082019091526000808252602082015290565b6060604051908101604052806000815260200160008152602001600081525090565b50805460018160011615610100020316600290046000825580601f10610de95750610c7b565b601f016020900490600052602060002090810190610c7b9190610d28565b6000601f82018313610e1857600080fd5b8135610e2b610e2682611589565b611562565b91508082526020830160208301858383011115610e4757600080fd5b610e528382846115c0565b50505092915050565b6000610e678235610d42565b9392505050565b600060208284031215610e8057600080fd5b6000610e8c8484610e5b565b949350505050565b600080600060608486031215610ea957600080fd5b6000610eb58686610e5b565b935050602084013567ffffffffffffffff811115610ed257600080fd5b610ede86828701610e07565b9250506040610eef86828701610e5b565b9150509250925092565b60008060008060008060c08789031215610f1257600080fd5b6000610f1e8989610e5b565b965050602087013567ffffffffffffffff811115610f3b57600080fd5b610f4789828a01610e07565b9550506040610f5889828a01610e5b565b9450506060610f6989828a01610e5b565b935050608087013567ffffffffffffffff811115610f8657600080fd5b610f9289828a01610e07565b92505060a0610fa389828a01610e5b565b9150509295509295509295565b600080600060608486031215610fc557600080fd5b6000610fd18686610e5b565b9350506020610fe286828701610e5b565b925050604084013567ffffffffffffffff811115610fff57600080fd5b610eef86828701610e07565b600080600080600080600060e0888a03121561102657600080fd5b60006110328a8a610e5b565b97505060206110438a828b01610e5b565b965050604088013567ffffffffffffffff81111561106057600080fd5b61106c8a828b01610e07565b955050606088013567ffffffffffffffff81111561108957600080fd5b6110958a828b01610e07565b945050608088013567ffffffffffffffff8111156110b257600080fd5b6110be8a828b01610e07565b93505060a088013567ffffffffffffffff8111156110db57600080fd5b6110e78a828b01610e07565b92505060c088013567ffffffffffffffff81111561110457600080fd5b6111108a828b01610e07565b91505092959891949750929550565b60008060006060848603121561113457600080fd5b60006111408686610e5b565b9350506020610ede86828701610e5b565b6000806000806080858703121561116757600080fd5b60006111738787610e5b565b945050602061118487828801610e5b565b935050604061119587828801610e5b565b92505060606111a687828801610e5b565b91505092959194509250565b60006111bd826115b7565b808452602084019350836020820285016111d6856115b1565b60005b8481101561120d5783830388526111f18383516112de565b92506111fc826115b1565b6020989098019791506001016111d9565b50909695505050505050565b6000611224826115b7565b8084526020840193508360208202850161123d856115b1565b60005b8481101561120d578383038852611258838351611462565b9250611263826115b1565b602098909801979150600101611240565b600061127f826115b7565b80845260208401935083602082028501611298856115b1565b60005b8481101561120d5783830388526112b383835161148f565b92506112be826115b1565b60209890980197915060010161129b565b6112d8816115bb565b82525050565b60006112e9826115b7565b8084526112fd8160208601602086016115cc565b611306816115f8565b9093016020019392505050565b80516000906101408401906113288582611534565b506020830151848203602086015261134082826112de565b9150506040830151848203604086015261135a828261141a565b915050606083015161136f60608601826113f6565b50608083015161138260a08601826113b9565b5060a083015184820361010086015261139b8282611274565b91505060c08301516113b16101208601826112cf565b509392505050565b805160608301906113ca8482611534565b5060208201516113dd6020850182611534565b5060408201516113f06040850182611534565b50505050565b805160408301906114078482611534565b5060208201516113f06020850182611534565b8051600090606084019061142e8582611534565b5060208301516114416020860182611534565b50604083015184820360408601526114598282611219565b95945050505050565b805160408084526000919084019061147a82826112de565b91505060208301516113b16020860182611534565b805160009060e08401906114a38582611534565b50602083015184820360208601526114bb82826112de565b915050604083015184820360408601526114d582826112de565b915050606083015184820360608601526114ef82826111b2565b9150506080830151848203608086015261150982826112de565b91505060a083015184820360a086015261152382826112de565b91505060c08301516113b160c08601825b6112d881610d42565b60208082528101610e678184611313565b6020810161155c8284611534565b92915050565b60405181810167ffffffffffffffff8111828210171561158157600080fd5b604052919050565b600067ffffffffffffffff8211156115a057600080fd5b506020601f91909101601f19160190565b60200190565b5190565b151590565b82818337506000910152565b60005b838110156115e75781810151838201526020016115cf565b838111156113f05750506000910152565b601f01601f1916905600a265627a7a7230582012071914c17af9f65a2d313a52b9d5eccd773bb1ef33e3f3f0bbb9791ebbdea16c6578706572696d656e74616cf50037",
    "sourcePath": "/Users/umarfaruk/blockchainProject/ElectionCampaign/ElectionCampaign.sol",
    "compiler": {
        "name": "solc",
        "version": "0.4.22+commit.4cb486ee"
    },
    "functionHashes": {
        "addElectionRecord(uint256,string,uint256,uint256,string,uint256)": "250d56ca",
        "addGrossExpenditure(uint256,uint256,uint256,uint256)": "221edf87",
        "addGrossReceipt(uint256,uint256,uint256)": "77f9cc8c",
        "addStarCampaignerInRecord(uint256,uint256,string)": "0e71b8b8",
        "addTravelExpensesStarCampaigners(uint256,uint256,string,string,string,string,string)": "9dce970f",
        "getElectionRecord(uint256)": "b632c22a",
        "updateOpeningBankBalance(uint256,string,uint256)": "decd5c3b"
    },
    "gasEstimates": {
        "creation": {
            "codeDepositCost": "1138400",
            "executionCost": "1180",
            "totalCost": "1139580"
        },
        "external": {
            "addElectionRecord(uint256,string,uint256,uint256,string,uint256)": "infinite",
            "addGrossExpenditure(uint256,uint256,uint256,uint256)": "infinite",
            "addGrossReceipt(uint256,uint256,uint256)": "infinite",
            "addStarCampaignerInRecord(uint256,uint256,string)": "infinite",
            "addTravelExpensesStarCampaigners(uint256,uint256,string,string,string,string,string)": "infinite",
            "getElectionRecord(uint256)": "infinite",
            "updateOpeningBankBalance(uint256,string,uint256)": "infinite"
        }
    }
}