{
    "contractName": "ElectionCampaign",
    "abi": [
        {
            "constant": false,
            "inputs": [
                {
                    "name": "_id",
                    "type": "uint256"
                },
                {
                    "name": "_pName",
                    "type": "string"
                },
                {
                    "name": "_c",
                    "type": "uint256"
                },
                {
                    "name": "_oD",
                    "type": "uint256"
                },
                {
                    "name": "_bName",
                    "type": "string"
                },
                {
                    "name": "_bAmt",
                    "type": "uint256"
                }
            ],
            "name": "addElectionRecord",
            "outputs": [],
            "payable": false,
            "stateMutability": "nonpayable",
            "type": "function"
        },
        {
            "constant": true,
            "inputs": [
                {
                    "name": "_id",
                    "type": "uint256"
                }
            ],
            "name": "getElectionRecord",
            "outputs": [
                {
                    "components": [
                        {
                            "name": "Id",
                            "type": "uint256"
                        },
                        {
                            "name": "partyName",
                            "type": "string"
                        },
                        {
                            "components": [
                                {
                                    "name": "cash",
                                    "type": "uint256"
                                },
                                {
                                    "name": "otherDeposits",
                                    "type": "uint256"
                                },
                                {
                                    "components": [
                                        {
                                            "name": "bankName",
                                            "type": "string"
                                        },
                                        {
                                            "name": "bankAmount",
                                            "type": "uint256"
                                        }
                                    ],
                                    "name": "bankBalances",
                                    "type": "tuple[]"
                                }
                            ],
                            "name": "opBal",
                            "type": "tuple"
                        },
                        {
                            "name": "verifiedByECAgent",
                            "type": "bool"
                        }
                    ],
                    "name": "str",
                    "type": "tuple"
                }
            ],
            "payable": false,
            "stateMutability": "view",
            "type": "function"
        },
        {
            "constant": false,
            "inputs": [
                {
                    "name": "_recordId",
                    "type": "uint256"
                },
                {
                    "name": "_bName",
                    "type": "string"
                },
                {
                    "name": "_bAmt",
                    "type": "uint256"
                }
            ],
            "name": "updateOpeningBankBalance",
            "outputs": [],
            "payable": false,
            "stateMutability": "nonpayable",
            "type": "function"
        }
    ],
    "bytecode": "608060405234801561001057600080fd5b5061091a806100206000396000f3006080604052600436106100565763ffffffff7c0100000000000000000000000000000000000000000000000000000000600035041663250d56ca811461005b578063b632c22a1461007d578063decd5c3b146100b3575b600080fd5b34801561006757600080fd5b5061007b6100763660046105ec565b6100d3565b005b34801561008957600080fd5b5061009d610098366004610561565b610199565b6040516100aa919061082b565b60405180910390f35b3480156100bf57600080fd5b5061007b6100ce366004610587565b610385565b6100db6103f6565b60008781526020818152604090912088815587516101019260019092019189019061040e565b5050600086815260208181526040808320600280820189905560038201889055825180840190935286835282840186905284845260049091018054600181018083559186529484902083518051949692958795939094029091019261016b9284929091019061040e565b50602091820151600190910155600098895288905250506040909520600501805460ff191690555050505050565b6101a161048c565b60008281526020818152604091829020825160808101845281548152600180830180548651600293821615610100026000190190911692909204601f810186900486028301860190965285825291949293858101939192919083018282801561024b5780601f106102205761010080835404028352916020019161024b565b820191906000526020600020905b81548152906001019060200180831161022e57829003601f168201915b505050505081526020016002820160606040519081016040529081600082015481526020016001820154815260200160028201805480602002602001604051908101604052809291908181526020016000905b828210156103645760008481526020908190206040805160028681029093018054600181161561010002600019011693909304601f8101859004909402810160609081018352918101848152909384928491908401828280156103425780601f1061031757610100808354040283529160200191610342565b820191906000526020600020905b81548152906001019060200180831161032557829003601f168201915b505050505081526020016001820154815250508152602001906001019061029e565b5050509152505081526005919091015460ff16151560209091015292915050565b61038d6103f6565b506040805180820182528381526020808201849052600086815280825292832060040180546001810180835591855293829020835180519495929486946002909402909201926103e29284929091019061040e565b506020820151816001015550505050505050565b60408051808201909152606081526000602082015290565b828054600181600116156101000203166002900490600052602060002090601f016020900481019282601f1061044f57805160ff191683800117855561047c565b8280016001018555821561047c579182015b8281111561047c578251825591602001919060010190610461565b506104889291506104bb565b5090565b60c06040519081016040528060008152602001606081526020016104ae6104d8565b8152600060209091015290565b6104d591905b8082111561048857600081556001016104c1565b90565b6060604051908101604052806000815260200160008152602001606081525090565b6000601f8201831361050b57600080fd5b813561051e61051982610863565b61083c565b9150808252602083016020830185838301111561053a57600080fd5b61054583828461089a565b50505092915050565b600061055a82356104d5565b9392505050565b60006020828403121561057357600080fd5b600061057f848461054e565b949350505050565b60008060006060848603121561059c57600080fd5b60006105a8868661054e565b935050602084013567ffffffffffffffff8111156105c557600080fd5b6105d1868287016104fa565b92505060406105e28682870161054e565b9150509250925092565b60008060008060008060c0878903121561060557600080fd5b6000610611898961054e565b965050602087013567ffffffffffffffff81111561062e57600080fd5b61063a89828a016104fa565b955050604061064b89828a0161054e565b945050606061065c89828a0161054e565b935050608087013567ffffffffffffffff81111561067957600080fd5b61068589828a016104fa565b92505060a061069689828a0161054e565b9150509295509295509295565b60006106ae82610891565b808452602084019350836020820285016106c78561088b565b60005b848110156106fe5783830388526106e28383516107f9565b92506106ed8261088b565b6020989098019791506001016106ca565b50909695505050505050565b61071381610895565b82525050565b600061072482610891565b8084526107388160208601602086016108a6565b610741816108d6565b9093016020019392505050565b805160009060808401906107628582610822565b506020830151848203602086015261077a8282610719565b9150506040830151848203604086015261079482826107b1565b91505060608301516107a9606086018261070a565b509392505050565b805160009060608401906107c58582610822565b5060208301516107d86020860182610822565b50604083015184820360408601526107f082826106a3565b95945050505050565b80516040808452600091908401906108118282610719565b91505060208301516107a960208601825b610713816104d5565b6020808252810161055a818461074e565b60405181810167ffffffffffffffff8111828210171561085b57600080fd5b604052919050565b600067ffffffffffffffff82111561087a57600080fd5b506020601f91909101601f19160190565b60200190565b5190565b151590565b82818337506000910152565b60005b838110156108c15781810151838201526020016108a9565b838111156108d0576000848401525b50505050565b601f01601f1916905600a265627a7a7230582074e59cb0dea1d99693a9efe14c70fbe6f8b750a57670784652fa2dc5a18d30566c6578706572696d656e74616cf50037",
    "sourcePath": "/Users/umarfaruk/blockchainProject/ElectionCampaign/ElectionCampaign.sol",
    "compiler": {
        "name": "solc",
        "version": "0.4.22+commit.4cb486ee"
    },
    "functionHashes": {
        "addElectionRecord(uint256,string,uint256,uint256,string,uint256)": "250d56ca",
        "getElectionRecord(uint256)": "b632c22a",
        "updateOpeningBankBalance(uint256,string,uint256)": "decd5c3b"
    },
    "gasEstimates": {
        "creation": {
            "codeDepositCost": "466000",
            "executionCost": "499",
            "totalCost": "466499"
        },
        "external": {
            "addElectionRecord(uint256,string,uint256,uint256,string,uint256)": "infinite",
            "getElectionRecord(uint256)": "infinite",
            "updateOpeningBankBalance(uint256,string,uint256)": "infinite"
        }
    }
}