{
    "contractName": "ElectionCampaign",
    "abi": [
        {
            "constant": true,
            "inputs": [
                {
                    "name": "_id",
                    "type": "uint256"
                }
            ],
            "name": "getOpeningBalance",
            "outputs": [
                {
                    "components": [
                        {
                            "name": "openingBalanceId",
                            "type": "uint256"
                        },
                        {
                            "name": "partyName",
                            "type": "string"
                        },
                        {
                            "name": "cash",
                            "type": "uint256"
                        },
                        {
                            "name": "otherDeposits",
                            "type": "uint256"
                        },
                        {
                            "components": [
                                {
                                    "name": "bankName",
                                    "type": "string"
                                },
                                {
                                    "name": "bankAmount",
                                    "type": "uint256"
                                }
                            ],
                            "name": "bankBalances",
                            "type": "tuple[]"
                        }
                    ],
                    "name": "oB",
                    "type": "tuple"
                }
            ],
            "payable": false,
            "stateMutability": "view",
            "type": "function"
        },
        {
            "constant": false,
            "inputs": [
                {
                    "name": "_opBalId",
                    "type": "uint256"
                },
                {
                    "name": "_pName",
                    "type": "string"
                },
                {
                    "name": "_c",
                    "type": "uint256"
                },
                {
                    "name": "_oD",
                    "type": "uint256"
                },
                {
                    "name": "_bName",
                    "type": "string"
                },
                {
                    "name": "_bAmt",
                    "type": "uint256"
                }
            ],
            "name": "addOpeningBalance",
            "outputs": [],
            "payable": false,
            "stateMutability": "nonpayable",
            "type": "function"
        },
        {
            "constant": false,
            "inputs": [
                {
                    "name": "_opBalId",
                    "type": "uint256"
                },
                {
                    "name": "_bName",
                    "type": "string"
                },
                {
                    "name": "_bAmt",
                    "type": "uint256"
                }
            ],
            "name": "updateOpeningBankBalance",
            "outputs": [],
            "payable": false,
            "stateMutability": "nonpayable",
            "type": "function"
        }
    ],
    "bytecode": "608060405234801561001057600080fd5b50610886806100206000396000f3006080604052600436106100565763ffffffff7c01000000000000000000000000000000000000000000000000000000006000350416631f7c6297811461005b578063b1ed88cd14610091578063decd5c3b146100b3575b600080fd5b34801561006757600080fd5b5061007b610076366004610505565b6100d3565b604051610088919061079c565b60405180910390f35b34801561009d57600080fd5b506100b16100ac366004610590565b61029b565b005b3480156100bf57600080fd5b506100b16100ce36600461052b565b61034a565b6100db6103bb565b60008281526020818152604091829020825160a08101845281548152600180830180548651600293821615610100026000190190911692909204601f81018690048602830186019096528582529194929385810193919291908301828280156101855780601f1061015a57610100808354040283529160200191610185565b820191906000526020600020905b81548152906001019060200180831161016857829003601f168201915b50505050508152602001600282015481526020016003820154815260200160048201805480602002602001604051908101604052809291908181526020016000905b8282101561028d5760008481526020908190206040805160028681029093018054600181161561010002600019011693909304601f81018590049094028101606090810183529181018481529093849284919084018282801561026b5780601f106102405761010080835404028352916020019161026b565b820191906000526020600020905b81548152906001019060200180831161024e57829003601f168201915b50505050508152602001600182015481525050815260200190600101906101c7565b505050915250909392505050565b6102a36103eb565b60008781526020818152604090912088815587516102c992600190920191890190610403565b5050600086815260208181526040808320600280820189905560038201889055825180840190935286835282840186905284845260049091018054600181018083559186529484902083518051949692958795939094029091019261033392849290910190610403565b506020820151816001015550505050505050505050565b6103526103eb565b506040805180820182528381526020808201849052600086815280825292832060040180546001810180835591855293829020835180519495929486946002909402909201926103a792849290910190610403565b506020820151816001015550505050505050565b60a06040519081016040528060008152602001606081526020016000815260200160008152602001606081525090565b60408051808201909152606081526000602082015290565b828054600181600116156101000203166002900490600052602060002090601f016020900481019282601f1061044457805160ff1916838001178555610471565b82800160010185558215610471579182015b82811115610471578251825591602001919060010190610456565b5061047d929150610481565b5090565b61049b91905b8082111561047d5760008155600101610487565b90565b6000601f820183136104af57600080fd5b81356104c26104bd826107d4565b6107ad565b915080825260208301602083018583830111156104de57600080fd5b6104e9838284610806565b50505092915050565b60006104fe823561049b565b9392505050565b60006020828403121561051757600080fd5b600061052384846104f2565b949350505050565b60008060006060848603121561054057600080fd5b600061054c86866104f2565b935050602084013567ffffffffffffffff81111561056957600080fd5b6105758682870161049e565b9250506040610586868287016104f2565b9150509250925092565b60008060008060008060c087890312156105a957600080fd5b60006105b589896104f2565b965050602087013567ffffffffffffffff8111156105d257600080fd5b6105de89828a0161049e565b95505060406105ef89828a016104f2565b945050606061060089828a016104f2565b935050608087013567ffffffffffffffff81111561061d57600080fd5b61062989828a0161049e565b92505060a061063a89828a016104f2565b9150509295509295509295565b600061065282610802565b8084526020840193508360208202850161066b856107fc565b60005b848110156106a2578383038852610686838351610758565b9250610691826107fc565b60209890980197915060010161066e565b50909695505050505050565b60006106b982610802565b8084526106cd816020860160208601610812565b6106d681610842565b9093016020019392505050565b805160009060a08401906106f7858261078d565b506020830151848203602086015261070f82826106ae565b9150506040830151610724604086018261078d565b506060830151610737606086018261078d565b506080830151848203608086015261074f8282610647565b95945050505050565b805160408084526000919084019061077082826106ae565b9150506020830151610785602086018261078d565b509392505050565b6107968161049b565b82525050565b602080825281016104fe81846106e3565b60405181810167ffffffffffffffff811182821017156107cc57600080fd5b604052919050565b600067ffffffffffffffff8211156107eb57600080fd5b506020601f91909101601f19160190565b60200190565b5190565b82818337506000910152565b60005b8381101561082d578181015183820152602001610815565b8381111561083c576000848401525b50505050565b601f01601f1916905600a265627a7a7230582006559a71542c8ba79b60f6b380deec59a8447ccaf4b12cd96bc3a89eb6fdc7956c6578706572696d656e74616cf50037",
    "sourcePath": "/Users/umarfaruk/Documents/blockProj/ElectionCampaign/ElectionCampaign.sol",
    "compiler": {
        "name": "solc",
        "version": "0.4.22+commit.4cb486ee"
    },
    "functionHashes": {
        "addOpeningBalance(uint256,string,uint256,uint256,string,uint256)": "b1ed88cd",
        "getOpeningBalance(uint256)": "1f7c6297",
        "updateOpeningBankBalance(uint256,string,uint256)": "decd5c3b"
    },
    "gasEstimates": {
        "creation": {
            "codeDepositCost": "436400",
            "executionCost": "474",
            "totalCost": "436874"
        },
        "external": {
            "addOpeningBalance(uint256,string,uint256,uint256,string,uint256)": "infinite",
            "getOpeningBalance(uint256)": "infinite",
            "updateOpeningBankBalance(uint256,string,uint256)": "infinite"
        }
    }
}