{
    "contractName": "NewBook",
    "abi": [
        {
            "constant": true,
            "inputs": [
                {
                    "name": "_bookID",
                    "type": "uint256"
                }
            ],
            "name": "getChapterByBook",
            "outputs": [
                {
                    "components": [
                        {
                            "name": "title",
                            "type": "string"
                        },
                        {
                            "name": "pages",
                            "type": "uint256"
                        }
                    ],
                    "name": "chapters",
                    "type": "tuple[]"
                }
            ],
            "payable": false,
            "stateMutability": "view",
            "type": "function"
        },
        {
            "constant": false,
            "inputs": [
                {
                    "name": "_bookID",
                    "type": "uint256"
                },
                {
                    "name": "title",
                    "type": "string"
                },
                {
                    "name": "pages",
                    "type": "uint256"
                }
            ],
            "name": "addChapter",
            "outputs": [],
            "payable": false,
            "stateMutability": "nonpayable",
            "type": "function"
        }
    ],
    "bytecode": "608060405234801561001057600080fd5b50610582806100206000396000f30060806040526004361061004b5763ffffffff7c0100000000000000000000000000000000000000000000000000000000600035041663781194c48114610050578063beeac6da14610086575b600080fd5b34801561005c57600080fd5b5061007061006b36600461032d565b6100a8565b60405161007d9190610498565b60405180910390f35b34801561009257600080fd5b506100a66100a1366004610353565b6101a5565b005b600081815260208181526040808320805482518185028101850190935280835260609492939192909184015b8282101561019a5760008481526020908190206040805160028681029093018054600181161561010002600019011693909304601f8101859004909402810160609081018352918101848152909384928491908401828280156101785780601f1061014d57610100808354040283529160200191610178565b820191906000526020600020905b81548152906001019060200180831161015b57829003601f168201915b50505050508152602001600182015481525050815260200190600101906100d4565b505050509050919050565b6101ad610213565b506040805180820182528381526020808201849052600086815280825292832080546001810180835591855293829020835180519495929486946002909402909201926101ff9284929091019061022b565b506020820151816001015550505050505050565b60408051808201909152606081526000602082015290565b828054600181600116156101000203166002900490600052602060002090601f016020900481019282601f1061026c57805160ff1916838001178555610299565b82800160010185558215610299579182015b8281111561029957825182559160200191906001019061027e565b506102a59291506102a9565b5090565b6102c391905b808211156102a557600081556001016102af565b90565b6000601f820183136102d757600080fd5b81356102ea6102e5826104d0565b6104a9565b9150808252602083016020830185838301111561030657600080fd5b610311838284610502565b50505092915050565b600061032682356102c3565b9392505050565b60006020828403121561033f57600080fd5b600061034b848461031a565b949350505050565b60008060006060848603121561036857600080fd5b6000610374868661031a565b935050602084013567ffffffffffffffff81111561039157600080fd5b61039d868287016102c6565b92505060406103ae8682870161031a565b9150509250925092565b60006103c3826104fe565b808452602084019350836020820285016103dc856104f8565b60005b848110156104135783830388526103f7838351610454565b9250610402826104f8565b6020989098019791506001016103df565b50909695505050505050565b600061042a826104fe565b80845261043e81602086016020860161050e565b6104478161053e565b9093016020019392505050565b805160408084526000919084019061046c828261041f565b91505060208301516104816020860182610489565b509392505050565b610492816102c3565b82525050565b6020808252810161032681846103b8565b60405181810167ffffffffffffffff811182821017156104c857600080fd5b604052919050565b600067ffffffffffffffff8211156104e757600080fd5b506020601f91909101601f19160190565b60200190565b5190565b82818337506000910152565b60005b83811015610529578181015183820152602001610511565b83811115610538576000848401525b50505050565b601f01601f1916905600a265627a7a7230582088ed36576170cebc1bd54f19356283c65f4096ebaae7f24541f6c1db4832dd626c6578706572696d656e74616cf50037",
    "sourcePath": "/Users/umarfaruk/Documents/blockProj/NewBook.sol",
    "compiler": {
        "name": "solc",
        "version": "0.4.22+commit.4cb486ee"
    },
    "functionHashes": {
        "addChapter(uint256,string,uint256)": "beeac6da",
        "getChapterByBook(uint256)": "781194c4"
    },
    "gasEstimates": {
        "creation": {
            "codeDepositCost": "282000",
            "executionCost": "324",
            "totalCost": "282324"
        },
        "external": {
            "addChapter(uint256,string,uint256)": "infinite",
            "getChapterByBook(uint256)": "infinite"
        }
    }
}